{
  "contractName": "Passport",
  "abi": [
    {
      "constant": true,
      "inputs": [
        {
          "name": "",
          "type": "address"
        }
      ],
      "name": "registeredUsers",
      "outputs": [
        {
          "name": "",
          "type": "uint256"
        }
      ],
      "payable": false,
      "stateMutability": "view",
      "type": "function"
    },
    {
      "constant": false,
      "inputs": [],
      "name": "takeOwnership",
      "outputs": [],
      "payable": false,
      "stateMutability": "nonpayable",
      "type": "function"
    },
    {
      "constant": false,
      "inputs": [],
      "name": "renounceOwnership",
      "outputs": [],
      "payable": false,
      "stateMutability": "nonpayable",
      "type": "function"
    },
    {
      "constant": true,
      "inputs": [],
      "name": "owner",
      "outputs": [
        {
          "name": "",
          "type": "address"
        }
      ],
      "payable": false,
      "stateMutability": "view",
      "type": "function"
    },
    {
      "constant": true,
      "inputs": [],
      "name": "isOwner",
      "outputs": [
        {
          "name": "",
          "type": "bool"
        }
      ],
      "payable": false,
      "stateMutability": "view",
      "type": "function"
    },
    {
      "constant": true,
      "inputs": [],
      "name": "isNewOwner",
      "outputs": [
        {
          "name": "",
          "type": "bool"
        }
      ],
      "payable": false,
      "stateMutability": "view",
      "type": "function"
    },
    {
      "constant": false,
      "inputs": [
        {
          "name": "newOwner",
          "type": "address"
        }
      ],
      "name": "transferOwnership",
      "outputs": [],
      "payable": false,
      "stateMutability": "nonpayable",
      "type": "function"
    },
    {
      "inputs": [],
      "payable": false,
      "stateMutability": "nonpayable",
      "type": "constructor"
    },
    {
      "anonymous": false,
      "inputs": [
        {
          "indexed": true,
          "name": "previousOwner",
          "type": "address"
        },
        {
          "indexed": true,
          "name": "newOwner",
          "type": "address"
        }
      ],
      "name": "OwnershipTransferred",
      "type": "event"
    },
    {
      "constant": true,
      "inputs": [
        {
          "name": "userAddress",
          "type": "address"
        }
      ],
      "name": "getUserIndexByAddress",
      "outputs": [
        {
          "name": "",
          "type": "uint256"
        }
      ],
      "payable": false,
      "stateMutability": "view",
      "type": "function"
    },
    {
      "constant": true,
      "inputs": [
        {
          "name": "Username",
          "type": "string"
        }
      ],
      "name": "getUserIndexByName",
      "outputs": [
        {
          "name": "",
          "type": "uint256"
        }
      ],
      "payable": false,
      "stateMutability": "view",
      "type": "function"
    },
    {
      "constant": true,
      "inputs": [],
      "name": "getNumberOfUsers",
      "outputs": [
        {
          "name": "",
          "type": "uint256"
        }
      ],
      "payable": false,
      "stateMutability": "view",
      "type": "function"
    },
    {
      "constant": true,
      "inputs": [],
      "name": "getNumberOfBadges",
      "outputs": [
        {
          "name": "",
          "type": "uint256"
        }
      ],
      "payable": false,
      "stateMutability": "view",
      "type": "function"
    },
    {
      "constant": true,
      "inputs": [
        {
          "name": "index",
          "type": "uint256"
        }
      ],
      "name": "getUserByIndex",
      "outputs": [
        {
          "name": "Name",
          "type": "string"
        },
        {
          "name": "TotalBadges",
          "type": "uint256"
        }
      ],
      "payable": false,
      "stateMutability": "view",
      "type": "function"
    },
    {
      "constant": true,
      "inputs": [
        {
          "name": "index",
          "type": "uint256"
        }
      ],
      "name": "getUserBadgesByIndex",
      "outputs": [
        {
          "name": "",
          "type": "uint256[]"
        }
      ],
      "payable": false,
      "stateMutability": "view",
      "type": "function"
    },
    {
      "constant": true,
      "inputs": [
        {
          "name": "UserAddress",
          "type": "address"
        }
      ],
      "name": "getUserBadgesByAddress",
      "outputs": [
        {
          "name": "",
          "type": "uint256[]"
        }
      ],
      "payable": false,
      "stateMutability": "view",
      "type": "function"
    },
    {
      "constant": true,
      "inputs": [
        {
          "name": "index",
          "type": "uint256"
        }
      ],
      "name": "getTotalUserBadgesByIndex",
      "outputs": [
        {
          "name": "",
          "type": "uint256"
        }
      ],
      "payable": false,
      "stateMutability": "view",
      "type": "function"
    },
    {
      "constant": true,
      "inputs": [
        {
          "name": "UserAddress",
          "type": "address"
        }
      ],
      "name": "getTotalUserBadgesByAddress",
      "outputs": [
        {
          "name": "",
          "type": "uint256"
        }
      ],
      "payable": false,
      "stateMutability": "view",
      "type": "function"
    },
    {
      "constant": true,
      "inputs": [
        {
          "name": "index",
          "type": "uint256"
        }
      ],
      "name": "getBadgeByIndex",
      "outputs": [
        {
          "name": "CourseName",
          "type": "string"
        },
        {
          "name": "CourseAuthors",
          "type": "string"
        },
        {
          "name": "CourseCreationDate",
          "type": "string"
        },
        {
          "name": "CourseCategory",
          "type": "string"
        }
      ],
      "payable": false,
      "stateMutability": "view",
      "type": "function"
    },
    {
      "constant": false,
      "inputs": [
        {
          "name": "UserAddress",
          "type": "address"
        },
        {
          "name": "Username",
          "type": "string"
        }
      ],
      "name": "createUser",
      "outputs": [],
      "payable": false,
      "stateMutability": "nonpayable",
      "type": "function"
    },
    {
      "constant": false,
      "inputs": [
        {
          "name": "CourseName",
          "type": "string"
        },
        {
          "name": "CourseAuthors",
          "type": "string"
        },
        {
          "name": "CourseCreationDate",
          "type": "string"
        },
        {
          "name": "CourseCategory",
          "type": "string"
        }
      ],
      "name": "createBadge",
      "outputs": [],
      "payable": false,
      "stateMutability": "nonpayable",
      "type": "function"
    },
    {
      "constant": false,
      "inputs": [
        {
          "name": "userAddress",
          "type": "address"
        },
        {
          "name": "badgeIndex",
          "type": "uint256"
        }
      ],
      "name": "addBadgeToUser",
      "outputs": [],
      "payable": false,
      "stateMutability": "nonpayable",
      "type": "function"
    }
  ],
  "bytecode": "0x60806040523480156200001157600080fd5b50336000806101000a81548173ffffffffffffffffffffffffffffffffffffffff021916908373ffffffffffffffffffffffffffffffffffffffff1602179055506000809054906101000a900473ffffffffffffffffffffffffffffffffffffffff1673ffffffffffffffffffffffffffffffffffffffff16600073ffffffffffffffffffffffffffffffffffffffff167f8be0079c531659141344cd1fd0a4f28419497f9722a3daafe3b4186f6b6457e060405160405180910390a3620000d8620001e0565b6020604051908101604052806000815250816000018190525060008160400181815250506000600360008073ffffffffffffffffffffffffffffffffffffffff1673ffffffffffffffffffffffffffffffffffffffff1681526020019081526020016000208190555060006002604051806000019050908152602001604051809103902081905550600581908060018154018082558091505090600182039060005260206000209060030201600090919290919091506000820151816000019080519060200190620001ac92919062000202565b506020820151816001019080519060200190620001cb92919062000289565b50604082015181600201555050505062000303565b6060604051908101604052806060815260200160608152602001600081525090565b828054600181600116156101000203166002900490600052602060002090601f016020900481019282601f106200024557805160ff191683800117855562000276565b8280016001018555821562000276579182015b828111156200027557825182559160200191906001019062000258565b5b509050620002859190620002db565b5090565b828054828255906000526020600020908101928215620002c8579160200282015b82811115620002c7578251825591602001919060010190620002aa565b5b509050620002d79190620002db565b5090565b6200030091905b80821115620002fc576000816000905550600101620002e2565b5090565b90565b61211d80620003136000396000f3fe60806040526004361061010c576000357c0100000000000000000000000000000000000000000000000000000000900480630e50cee514610111578063221edad71461017657806324ddd51a146101d157806333133682146101fc5780633ac3b450146102a25780634d0092881461037e5780635c9d3a94146103a95780636053617214610636578063715018a61461064d578063886abe80146106645780638da5cb5b146106c95780638f32d59b14610720578063a101c03d1461074f578063bbc34f2a1461079e578063bddd934f146107cd578063caf9d1f614610832578063effe4a01146108c2578063f2fde38b14610aba578063f9bcd54514610b0b578063ff5d32fe14610bf3575b600080fd5b34801561011d57600080fd5b506101606004803603602081101561013457600080fd5b81019080803573ffffffffffffffffffffffffffffffffffffffff169060200190929190505050610cae565b6040518082815260200191505060405180910390f35b34801561018257600080fd5b506101cf6004803603604081101561019957600080fd5b81019080803573ffffffffffffffffffffffffffffffffffffffff16906020019092919080359060200190929190505050610cc6565b005b3480156101dd57600080fd5b506101e6610de8565b6040518082815260200191505060405180910390f35b34801561020857600080fd5b5061024b6004803603602081101561021f57600080fd5b81019080803573ffffffffffffffffffffffffffffffffffffffff169060200190929190505050610df5565b6040518080602001828103825283818151815260200191508051906020019060200280838360005b8381101561028e578082015181840152602081019050610273565b505050509050019250505060405180910390f35b3480156102ae57600080fd5b50610368600480360360208110156102c557600080fd5b81019080803590602001906401000000008111156102e257600080fd5b8201836020820111156102f457600080fd5b8035906020019184600183028401116401000000008311171561031657600080fd5b91908080601f016020809104026020016040519081016040528093929190818152602001838380828437600081840152601f19601f820116905080830192505050505050509192919290505050610f35565b6040518082815260200191505060405180910390f35b34801561038a57600080fd5b50610393610faf565b6040518082815260200191505060405180910390f35b3480156103b557600080fd5b50610634600480360360808110156103cc57600080fd5b81019080803590602001906401000000008111156103e957600080fd5b8201836020820111156103fb57600080fd5b8035906020019184600183028401116401000000008311171561041d57600080fd5b91908080601f016020809104026020016040519081016040528093929190818152602001838380828437600081840152601f19601f8201169050808301925050505050505091929192908035906020019064010000000081111561048057600080fd5b82018360208201111561049257600080fd5b803590602001918460018302840111640100000000831117156104b457600080fd5b91908080601f016020809104026020016040519081016040528093929190818152602001838380828437600081840152601f19601f8201169050808301925050505050505091929192908035906020019064010000000081111561051757600080fd5b82018360208201111561052957600080fd5b8035906020019184600183028401116401000000008311171561054b57600080fd5b91908080601f016020809104026020016040519081016040528093929190818152602001838380828437600081840152601f19601f820116905080830192505050505050509192919290803590602001906401000000008111156105ae57600080fd5b8201836020820111156105c057600080fd5b803590602001918460018302840111640100000000831117156105e257600080fd5b91908080601f016020809104026020016040519081016040528093929190818152602001838380828437600081840152601f19601f820116905080830192505050505050509192919290505050610fbc565b005b34801561064257600080fd5b5061064b6112cc565b005b34801561065957600080fd5b50610662611427565b005b34801561067057600080fd5b506106b36004803603602081101561068757600080fd5b81019080803573ffffffffffffffffffffffffffffffffffffffff1690602001909291905050506114f9565b6040518082815260200191505060405180910390f35b3480156106d557600080fd5b506106de611557565b604051808273ffffffffffffffffffffffffffffffffffffffff1673ffffffffffffffffffffffffffffffffffffffff16815260200191505060405180910390f35b34801561072c57600080fd5b50610735611580565b604051808215151515815260200191505060405180910390f35b34801561075b57600080fd5b506107886004803603602081101561077257600080fd5b81019080803590602001909291905050506115d7565b6040518082815260200191505060405180910390f35b3480156107aa57600080fd5b506107b3611604565b604051808215151515815260200191505060405180910390f35b3480156107d957600080fd5b5061081c600480360360208110156107f057600080fd5b81019080803573ffffffffffffffffffffffffffffffffffffffff16906020019092919050505061165c565b6040518082815260200191505060405180910390f35b34801561083e57600080fd5b5061086b6004803603602081101561085557600080fd5b81019080803590602001909291905050506116c8565b6040518080602001828103825283818151815260200191508051906020019060200280838360005b838110156108ae578082015181840152602081019050610893565b505050509050019250505060405180910390f35b3480156108ce57600080fd5b506108fb600480360360208110156108e557600080fd5b81019080803590602001909291905050506117c3565b6040518080602001806020018060200180602001858103855289818151815260200191508051906020019080838360005b8381101561094757808201518184015260208101905061092c565b50505050905090810190601f1680156109745780820380516001836020036101000a031916815260200191505b50858103845288818151815260200191508051906020019080838360005b838110156109ad578082015181840152602081019050610992565b50505050905090810190601f1680156109da5780820380516001836020036101000a031916815260200191505b50858103835287818151815260200191508051906020019080838360005b83811015610a135780820151818401526020810190506109f8565b50505050905090810190601f168015610a405780820380516001836020036101000a031916815260200191505b50858103825286818151815260200191508051906020019080838360005b83811015610a79578082015181840152602081019050610a5e565b50505050905090810190601f168015610aa65780820380516001836020036101000a031916815260200191505b509850505050505050505060405180910390f35b348015610ac657600080fd5b50610b0960048036036020811015610add57600080fd5b81019080803573ffffffffffffffffffffffffffffffffffffffff169060200190929190505050611ac8565b005b348015610b1757600080fd5b50610bf160048036036040811015610b2e57600080fd5b81019080803573ffffffffffffffffffffffffffffffffffffffff16906020019092919080359060200190640100000000811115610b6b57600080fd5b820183602082011115610b7d57600080fd5b80359060200191846001830284011164010000000083111715610b9f57600080fd5b91908080601f016020809104026020016040519081016040528093929190818152602001838380828437600081840152601f19601f820116905080830192505050505050509192919290505050611ae7565b005b348015610bff57600080fd5b50610c2c60048036036020811015610c1657600080fd5b8101908080359060200190929190505050611e47565b6040518080602001838152602001828103825284818151815260200191508051906020019080838360005b83811015610c72578082015181840152602081019050610c57565b50505050905090810190601f168015610c9f5780820380516001836020036101000a031916815260200191505b50935050505060405180910390f35b60036020528060005260406000206000915090505481565b610cce611580565b1515610cd957600080fd5b60068054905081101515610d55576040517f08c379a000000000000000000000000000000000000000000000000000000000815260040180806020018281038252601a8152602001807f4572726f722c204261646765206f7574206f6620626f756e647300000000000081525060200191505060405180910390fd5b60006005600360008573ffffffffffffffffffffffffffffffffffffffff1673ffffffffffffffffffffffffffffffffffffffff16815260200190815260200160002054815481101515610da557fe5b9060005260206000209060030201905080600101829080600181540180825580915050906001820390600052602060002001600090919290919091505550505050565b6000600680549050905090565b60606000600360008473ffffffffffffffffffffffffffffffffffffffff1673ffffffffffffffffffffffffffffffffffffffff1681526020019081526020016000205490506000600582815481101515610e4c57fe5b9060005260206000209060030201600101805490509050606081604051908082528060200260200182016040528015610e945781602001602082028038833980820191505090505b50905060008090505b600584815481101515610eac57fe5b906000526020600020906003020160010180549050811015610f2957600584815481101515610ed757fe5b906000526020600020906003020160010181815481101515610ef557fe5b90600052602060002001548282815181101515610f0e57fe5b90602001906020020181815250508080600101915050610e9d565b50809350505050919050565b6000806002836040518082805190602001908083835b602083101515610f705780518252602082019150602081019050602083039250610f4b565b6001836020036101000a038019825116818451168082178552505050505050905001915050908152602001604051809103902054905080915050919050565b6000600580549050905090565b610fc4611580565b1515610fcf57600080fd5b60606004856040518082805190602001908083835b6020831015156110095780518252602082019150602081019050602083039250610fe4565b6001836020036101000a03801982511681845116808217855250505050505090500191505090815260200160405180910390206000018054600181600116156101000203166002900480601f0160208091040260200160405190810160405280929190818152602001828054600181600116156101000203166002900480156110d35780601f106110a8576101008083540402835291602001916110d3565b820191906000526020600020905b8154815290600101906020018083116110b657829003601f168201915b5050505050905060405160200180600001905060405160208183030381529060405280519060200120818051906020012014151561111057600080fd5b611118611fb4565b858160000181905250848160200181905250838160400181905250828160600181905250806004876040518082805190602001908083835b6020831015156111755780518252602082019150602081019050602083039250611150565b6001836020036101000a038019825116818451168082178552505050505050905001915050908152602001604051809103902060008201518160000190805190602001906111c4929190611fdd565b5060208201518160010190805190602001906111e1929190611fdd565b5060408201518160020190805190602001906111fe929190611fdd565b50606082015181600301908051906020019061121b929190611fdd565b50905050600681908060018154018082558091505090600182039060005260206000209060040201600090919290919091506000820151816000019080519060200190611269929190611fdd565b506020820151816001019080519060200190611286929190611fdd565b5060408201518160020190805190602001906112a3929190611fdd565b5060608201518160030190805190602001906112c0929190611fdd565b50505050505050505050565b6112d4611604565b15156112df57600080fd5b60008060009054906101000a900473ffffffffffffffffffffffffffffffffffffffff169050600160009054906101000a900473ffffffffffffffffffffffffffffffffffffffff166000806101000a81548173ffffffffffffffffffffffffffffffffffffffff021916908373ffffffffffffffffffffffffffffffffffffffff1602179055506000600160006101000a81548173ffffffffffffffffffffffffffffffffffffffff021916908373ffffffffffffffffffffffffffffffffffffffff1602179055506000809054906101000a900473ffffffffffffffffffffffffffffffffffffffff1673ffffffffffffffffffffffffffffffffffffffff168173ffffffffffffffffffffffffffffffffffffffff167f8be0079c531659141344cd1fd0a4f28419497f9722a3daafe3b4186f6b6457e060405160405180910390a350565b61142f611580565b151561143a57600080fd5b600073ffffffffffffffffffffffffffffffffffffffff166000809054906101000a900473ffffffffffffffffffffffffffffffffffffffff1673ffffffffffffffffffffffffffffffffffffffff167f8be0079c531659141344cd1fd0a4f28419497f9722a3daafe3b4186f6b6457e060405160405180910390a360008060006101000a81548173ffffffffffffffffffffffffffffffffffffffff021916908373ffffffffffffffffffffffffffffffffffffffff160217905550565b600080600360008473ffffffffffffffffffffffffffffffffffffffff1673ffffffffffffffffffffffffffffffffffffffff1681526020019081526020016000205490506000811415151561154e57600080fd5b80915050919050565b60008060009054906101000a900473ffffffffffffffffffffffffffffffffffffffff16905090565b60008060009054906101000a900473ffffffffffffffffffffffffffffffffffffffff1673ffffffffffffffffffffffffffffffffffffffff163373ffffffffffffffffffffffffffffffffffffffff1614905090565b60006005828154811015156115e857fe5b9060005260206000209060030201600101805490509050919050565b6000600160009054906101000a900473ffffffffffffffffffffffffffffffffffffffff1673ffffffffffffffffffffffffffffffffffffffff163373ffffffffffffffffffffffffffffffffffffffff1614905090565b60006005600360008473ffffffffffffffffffffffffffffffffffffffff1673ffffffffffffffffffffffffffffffffffffffff168152602001908152602001600020548154811015156116ac57fe5b9060005260206000209060030201600101805490509050919050565b606060006005838154811015156116db57fe5b90600052602060002090600302016001018054905090506060816040519080825280602002602001820160405280156117235781602001602082028038833980820191505090505b50905060008090505b60058581548110151561173b57fe5b9060005260206000209060030201600101805490508110156117b85760058581548110151561176657fe5b90600052602060002090600302016001018181548110151561178457fe5b9060005260206000200154828281518110151561179d57fe5b9060200190602002018181525050808060010191505061172c565b508092505050919050565b6060806060806006858154811015156117d857fe5b90600052602060002090600402016000016006868154811015156117f857fe5b906000526020600020906004020160010160068781548110151561181857fe5b906000526020600020906004020160020160068881548110151561183857fe5b9060005260206000209060040201600301838054600181600116156101000203166002900480601f0160208091040260200160405190810160405280929190818152602001828054600181600116156101000203166002900480156118de5780601f106118b3576101008083540402835291602001916118de565b820191906000526020600020905b8154815290600101906020018083116118c157829003601f168201915b50505050509350828054600181600116156101000203166002900480601f01602080910402602001604051908101604052809291908181526020018280546001816001161561010002031660029004801561197a5780601f1061194f5761010080835404028352916020019161197a565b820191906000526020600020905b81548152906001019060200180831161195d57829003601f168201915b50505050509250818054600181600116156101000203166002900480601f016020809104026020016040519081016040528092919081815260200182805460018160011615610100020316600290048015611a165780601f106119eb57610100808354040283529160200191611a16565b820191906000526020600020905b8154815290600101906020018083116119f957829003601f168201915b50505050509150808054600181600116156101000203166002900480601f016020809104026020016040519081016040528092919081815260200182805460018160011615610100020316600290048015611ab25780601f10611a8757610100808354040283529160200191611ab2565b820191906000526020600020905b815481529060010190602001808311611a9557829003601f168201915b5050505050905093509350935093509193509193565b611ad0611580565b1515611adb57600080fd5b611ae481611f34565b50565b611aef611580565b1515611afa57600080fd5b6040518060000190506040518091039020818051906020012014151515611b2057600080fd5b60006005600360008573ffffffffffffffffffffffffffffffffffffffff1673ffffffffffffffffffffffffffffffffffffffff16815260200190815260200160002054815481101515611b7057fe5b906000526020600020906003020160010180549050141515611b9157600080fd5b60405180600001905060405180910390206005600360008573ffffffffffffffffffffffffffffffffffffffff1673ffffffffffffffffffffffffffffffffffffffff16815260200190815260200160002054815481101515611bf057fe5b90600052602060002090600302016000016040518082805460018160011615610100020316600290048015611c5c5780601f10611c3a576101008083540402835291820191611c5c565b820191906000526020600020905b815481529060010190602001808311611c48575b50509150506040518091039020141515611c7557600080fd5b60006002826040518082805190602001908083835b602083101515611caf5780518252602082019150602081019050602083039250611c8a565b6001836020036101000a038019825116818451168082178552505050505050905001915050908152602001604051809103902054141515611cef57600080fd5b611cf761205d565b8181600001819052506005805490508160400181815250506005805490506002836040518082805190602001908083835b602083101515611d4d5780518252602082019150602081019050602083039250611d28565b6001836020036101000a038019825116818451168082178552505050505050905001915050908152602001604051809103902081905550600580549050600360008573ffffffffffffffffffffffffffffffffffffffff1673ffffffffffffffffffffffffffffffffffffffff16815260200190815260200160002081905550600581908060018154018082558091505090600182039060005260206000209060030201600090919290919091506000820151816000019080519060200190611e17929190611fdd565b506020820151816001019080519060200190611e3492919061207f565b5060408201518160020155505050505050565b60606000600583815481101515611e5a57fe5b9060005260206000209060030201600001600584815481101515611e7a57fe5b906000526020600020906003020160010180549050818054600181600116156101000203166002900480601f016020809104026020016040519081016040528092919081815260200182805460018160011615610100020316600290048015611f245780601f10611ef957610100808354040283529160200191611f24565b820191906000526020600020905b815481529060010190602001808311611f0757829003601f168201915b5050505050915091509150915091565b600073ffffffffffffffffffffffffffffffffffffffff168173ffffffffffffffffffffffffffffffffffffffff1614151515611f7057600080fd5b80600160006101000a81548173ffffffffffffffffffffffffffffffffffffffff021916908373ffffffffffffffffffffffffffffffffffffffff16021790555050565b608060405190810160405280606081526020016060815260200160608152602001606081525090565b828054600181600116156101000203166002900490600052602060002090601f016020900481019282601f1061201e57805160ff191683800117855561204c565b8280016001018555821561204c579182015b8281111561204b578251825591602001919060010190612030565b5b50905061205991906120cc565b5090565b6060604051908101604052806060815260200160608152602001600081525090565b8280548282559060005260206000209081019282156120bb579160200282015b828111156120ba57825182559160200191906001019061209f565b5b5090506120c891906120cc565b5090565b6120ee91905b808211156120ea5760008160009055506001016120d2565b5090565b9056fea165627a7a72305820316110969c901341f89a9cd43a813663388812e8dbbbfd9be23e579127af0f3b0029",
  "source": "pragma solidity ^0.5.1;\n\nimport \"./ownable.sol\";\n\ncontract Passport is Ownable {\n\n    struct user {\n        string Name;\n        uint256[] AllBadges;\n        uint256 UserIndex;\n    }\n\n    struct badge {\n        string CourseName;\n        string CourseAuthors;\n        string CourseCreationDate;\n        string CourseCategory;\n    }\n\n    // contains a reference to the index in the array where the user resides\n    mapping (string => uint256) private userIndexByName;\n    mapping (address => uint256) public registeredUsers;\n\n    mapping (string => badge) private badgeByCourseName;\n    // contains a reference to the index in the array where the user resides\n\n\n    user[] private allUsers;\n    badge[] private allBadges;\n\n    constructor() public {\n        user memory garbageValueUser;\n\n        garbageValueUser.Name = \"\";\n        garbageValueUser.UserIndex = 0;\n\n        registeredUsers[address(0)] = 0;\n        userIndexByName[\"\"] = 0;\n        allUsers.push(garbageValueUser);\n    }\n\n    /*\n        Getters\n    */\n    function getUserIndexByAddress(address userAddress) public view returns (uint256) {\n        uint256 userIndex = registeredUsers[userAddress];\n        require(userIndex != 0);\n        return (userIndex);\n    }\n\n    function getUserIndexByName(string memory Username) public view returns (uint256) {\n        uint256 userIndex = userIndexByName[Username];\n        return (userIndex);\n    }\n\n    function getNumberOfUsers() public view returns (uint256) {\n        return allUsers.length;\n    }\n\n    function getNumberOfBadges() public view returns (uint256) {\n        return allBadges.length;\n    }\n\n    function getUserByIndex(uint256 index) public view returns (\n        string memory Name,\n        uint256 TotalBadges\n        ) {\n        return (\n            allUsers[index].Name,\n            allUsers[index].AllBadges.length\n            );\n    }\n\n    function getUserBadgesByIndex(uint256 index) public view returns (\n        uint256[] memory\n        ) {\n        uint256 totalBadgeAmount = allUsers[index].AllBadges.length;\n        uint256[] memory allUserBadges = new uint256[](totalBadgeAmount);\n        for (uint256 i = 0; i < allUsers[index].AllBadges.length; i++) {\n            allUserBadges[i] = allUsers[index].AllBadges[i];\n        }\n        return allUserBadges;\n    }\n\n    function getUserBadgesByAddress(address UserAddress) public view returns (\n        uint256[] memory\n        ) {\n        uint256 userIndex = registeredUsers[UserAddress];\n        uint256 TotalBadgeAmount = allUsers[userIndex].AllBadges.length;\n        uint256[] memory AllUserBadges = new uint256[](TotalBadgeAmount);\n        for (uint256 i = 0; i < allUsers[userIndex].AllBadges.length; i++) {\n            AllUserBadges[i] = allUsers[userIndex].AllBadges[i];\n        }\n        return AllUserBadges;\n    }\n\n    function getTotalUserBadgesByIndex(uint256 index) public view returns (uint256) {\n        return allUsers[index].AllBadges.length;\n    }\n\n    function getTotalUserBadgesByAddress(address UserAddress) public view returns (uint256) {\n        return allUsers[registeredUsers[UserAddress]].AllBadges.length;\n    }\n\n    function getBadgeByIndex(uint256 index) public view returns (\n        string memory CourseName,\n        string memory CourseAuthors,\n        string memory CourseCreationDate,\n        string memory CourseCategory\n        ) {\n            return (\n                allBadges[index].CourseName,\n                allBadges[index].CourseAuthors,\n                allBadges[index].CourseCreationDate,\n                allBadges[index].CourseCategory\n                );\n    }\n\n    /*\n        Setters\n    */\n\n    function createUser(\n        address UserAddress,\n        string memory Username\n        ) public onlyOwner {\n\n        require(keccak256(bytes(Username)) != keccak256(\"\"));\n        require(allUsers[registeredUsers[UserAddress]].AllBadges.length == 0);\n        require(keccak256(bytes(allUsers[registeredUsers[UserAddress]].Name)) == keccak256(\"\"));\n        require(userIndexByName[Username] == 0);\n\n        user memory NewUser;\n        NewUser.Name = Username;\n        NewUser.UserIndex = allUsers.length;\n\n        userIndexByName[Username] = allUsers.length;\n        registeredUsers[UserAddress] = allUsers.length;\n        allUsers.push(NewUser);\n    }\n\n    function createBadge(\n        string memory CourseName,\n        string memory CourseAuthors,\n        string memory CourseCreationDate,\n        string memory CourseCategory\n        ) public onlyOwner {\n        string memory TestCourseName = badgeByCourseName[CourseName].CourseName;\n        require(keccak256(bytes(TestCourseName)) == keccak256(abi.encodePacked(\"\")));\n\n        badge memory NewBadge;\n        NewBadge.CourseName = CourseName;\n        NewBadge.CourseAuthors = CourseAuthors;\n        NewBadge.CourseCreationDate = CourseCreationDate;\n        NewBadge.CourseCategory = CourseCategory;\n\n        badgeByCourseName[CourseName] = NewBadge;\n        allBadges.push(NewBadge);\n    }\n\n    function addBadgeToUser(\n        address userAddress,\n        uint256 badgeIndex\n        ) public onlyOwner {\n        require(badgeIndex < allBadges.length, \"Error, Badge out of bounds\");\n\n        //update the user's information in the mapping\n        user storage userToAddBadge = allUsers[registeredUsers[userAddress]];\n        userToAddBadge.AllBadges.push(badgeIndex);\n    }\n}\n",
  "sourcePath": "/Users/wubs/gitlab-final/smart-contracts/contracts/Passport.sol",
  "compiler": {
    "name": "solc",
    "version": "0.5.1+commit.c8a2cb62.Emscripten.clang"
  },
  "schemaVersion": "3.0.9",
  "updatedAt": "2019-05-16T19:05:28.824Z",
  "devdoc": {
    "methods": {
      "isNewOwner()": {
        "return": "true if `msg.sender` is the new owner of the contract."
      },
      "isOwner()": {
        "return": "true if `msg.sender` is the owner of the contract."
      },
      "owner()": {
        "return": "the address of the owner."
      },
      "renounceOwnership()": {
        "details": "Allows the current owner to relinquish control of the contract. It will not be possible to call the functions with the `onlyOwner` modifier anymore."
      },
      "transferOwnership(address)": {
        "details": "Allows the current owner to transfer control of the contract to a newOwner.",
        "params": {
          "newOwner": "The address to transfer ownership to."
        }
      }
    }
  },
  "userdoc": {
    "methods": {
      "renounceOwnership()": {
        "notice": "Renouncing ownership will leave the contract without an owner, thereby removing any functionality that is only available to the owner."
      }
    }
  }
}